:020000040800F2
:10000000200500200101000833150008F313000843
:10001000311500086D0100081919000800000000E2
:10002000000000000000000000000000C5150008EE
:10003000C10200080000000035150008F515000891
:100040001B0100081B0100081B0100081B01000820
:100050001B0100081B0100087903000825040008A3
:10006000D10400087D0500081B0100081B010008E1
:100070001B0100081B0100081B0100081B010008F0
:100080001B0100081B0100081B0100081B010008E0
:100090001B0100081B0100081B0100081B010008D0
:1000A0001B010008891600081B0100081B0100083D
:1000B000951600081B010008000000001B01000845
:1000C0001B01000800000000000000001B010008E8
:1000D000000000001B010008851800080000000057
:1000E0001B0100081B0100081B010008DFF80CD0F1
:1000F00000F02AF800480047D91D0008200500201C
:100100000648804706480047FEE7FEE7FEE7FEE7B1
:10011000FEE7FEE7FEE7FEE7FEE7FEE74116000822
:10012000ED000008D2B201E000F8012B491EFBD21D
:1001300070470022F6E710B513460A4604461946F2
:10014000FFF7F0FF204610BD064C074D06E0E068C3
:1001500040F0010394E8070098471034AC42F6D30E
:10016000FFF7C8FF201F0008401F0008FEE700003F
:100170002DE9F04701223349334C1546174600203C
:10018000A1F1100654F8203056F820C0634500D085
:10019000002251F820C0634500D00025401C0328F0
:1001A000F0DD002054F8203051F820C0634501D024
:1001B000002702E0401C0328F4DDDFF88880DFF828
:1001C0008C90A8F12C08012A04D0D8F80800284304
:1001D00008D011E01EA001F081FD01F0BFF901225D
:1001E000D10306E01FA001F079FD01F0B7F901226B
:1001F0005103484600F00FFBD8F80800012810D141
:100200007FB9002054F8201046F82010401C032825
:10021000F8DD1AA001F062FD0021C8F8081001F015
:100220008BF9012D0BD11AA001F058FD0121C8F85E
:10023000081001F0C9F9BDE8F04701F07DB9BDE84B
:10024000F08700002C000020100100200008014071
:10025000436F72726563742050617373776F726459
:100260000D0A0000496E636F7272656374205061FD
:100270007373776F72640D0A00000000506173732E
:10028000776F7264205570646174650D0A00000018
:10029000507269766174652050617373776F726410
:1002A00020656E74657265640D0A000003480021C4
:1002B000016041608160C160704700001001002052
:1002C000704700002DE9F041284E294C294F0025A8
:1002D00056F8250088B30B2843D2DFE800F0420629
:1002E0000B10151A1F24292F340054F8250001F093
:1002F000D5FB2CE054F8250001F090FC27E054F8E1
:10030000250001F05BFC22E054F8250001F066FBBB
:100310001DE054F8250001F031FB18E054F82500E9
:1003200001F01CFC13E054F8250001F0E7FB0EE09F
:1003300054F8250001F0F2FA09E012E054F8250023
:1003400001F07CFB03E054F8250001F097FC01204C
:1003500000F06AF934F82500002281B2384600F036
:100360005AFA6D1C032DB3DDBDE8F08110010020A9
:100370000C0000200008014070B5244E01213046D9
:1003800000F044FA0128224803D0BDE8704000F094
:10039000E3BD00F004FE1F4C606804282EDA202123
:1003A000304600F033FA1A4DC035012808D11AA0A2
:1003B00001F094FC6068012145F82010401C606049
:1003C0004021304600F022FA012808D113A001F0A4
:1003D00085FC6168022045F82100491C616080218C
:1003E000304600F013FA012808D10DA001F076FC88
:1003F0006068032145F82010401C60606068042894
:1004000003D1BDE87040FFF7B3BE70BD000C0140E2
:100410005000002000000020310D0A00320D0A00BB
:10042000330D0A0070B5244E0221304600F0EEF97B
:100430000128224803D0BDE8704000F08DBD00F0D7
:10044000AEFD1F4C606804282EDA2021304600F0F3
:10045000DDF91A4DC035012808D11AA001F03EFC83
:100460006068042145F82010401C6060402130463F
:1004700000F0CCF9012808D113A001F02FFC61682D
:10048000052045F82100491C61608021304600F0BC
:10049000BDF9012808D10DA001F020FC60680621FB
:1004A00045F82010401C60606068042803D1BDE856
:1004B0007040FFF75DBE70BD000C01405000002091
:1004C00000000020340D0A00350D0A00360D0A0028
:1004D00070B5244E0421304600F098F901282248D6
:1004E00003D0BDE8704000F037BD00F058FD1F4C50
:1004F000606804282EDA2021304600F087F91A4D72
:10050000C035012808D11AA001F0E8FB6068072176
:1005100045F82010401C60604021304600F076F91C
:10052000012808D113A001F0D9FB6168082045F823
:100530002100491C61608021304600F067F90128E4
:1005400008D10DA001F0CAFB6068092145F8201010
:10055000401C60606068042803D1BDE87040FFF76C
:1005600007BE70BD000C01405000002000000020BC
:10057000370D0A00380D0A00390D0A0070B5244DF8
:100580000821284600F042F90128224803D0BDE89E
:10059000704000F0E1BC00F002FD2021284600F090
:1005A00035F900261C4C012807D11CA001F096FB50
:1005B00000F0C2FF00F0D2FFA6608021284600F0C4
:1005C00025F9012807D116A001F088FB00F0B4FF3F
:1005D00000F0C4FFA6606068042810DA40212846B5
:1005E00000F014F901280AD10EA001F077FB094AA6
:1005F0006068C0320A2142F82010401C60606068C8
:10060000042803D1BDE87040FFF7B2BD70BD000003
:10061000000C014050000020000000202A0D0A00BC
:10062000230D0A00300D0A0070B5044600F0F8F8FA
:100630000546601C02D004480078044400F0F0F83D
:10064000401BA042FAD370BD3C0000202DE9F84FBA
:10065000DFF89C91002409F1040A0AF1040B2346F7
:100660000F270BF1040EBBE00125A5402A40AA424A
:1006700076D1DFF880C14E68A6EB0C0866452BD01A
:100680000DDC032E34D005DC36B3012E19D0022E3A
:100690002FD11BE0112E16D0122E2AD119E0B8F559
:1006A000881F19D006DCB8F5803F15D0B8F5801F3B
:1006B0001FD111E0B8F5001F0ED0B8F5041F18D1F6
:1006C0000AE0CB6815E0CB681B1D12E0CB6808334D
:1006D0000FE0CB680C330CE08B682BB1012B4FF093
:1006E000080303D0456104E0042302E0056100E053
:1006F0000023FF2A01D8064601E000F104064FEA74
:10070000840501D9A5F12005D6F8008007FA05FC7B
:1007100028EA0C0803FA05F548EA0508C6F800803F
:100720004D68ED005BD5344DAE6946F00106AE6113
:10073000AD6924F0030605F0010500952F4D06EB89
:10074000050CDCF80850A607360F07FA06F825EA6C
:100750000805DFF8AC80404503D14FF0000810E0F9
:100760003DE0DFF8A080404502D14FF0010808E0ED
:10077000DFF89480404502D14FF0020801E04FF0CD
:10078000030808FA06F848EA0508CCF808804D681E
:10079000D9F80060ED034D4601D5164300E09643BD
:1007A0002E604D68DAF80060AD03554601D516435A
:1007B00000E096432E604D68DBF80060ED025D4678
:1007C00001D5164300E096432E604D68DEF80060C8
:1007D000AD02754601D5164300E096432E60641CB9
:1007E0000A6832FA04F57FF43FAFBDE8F88F0000E5
:1007F0000004014000001110001002400000014000
:1008000000080140000C01400010014080680840D1
:1008100000D0012070470AB1016170470904FBE76D
:1008200001488068704700003C0000200248816851
:1008300002781144816070473C000020074810B5E1
:10084000016841F010010160032000F075F80020FC
:1008500000F006F800F024F8002010BD002002404F
:1008600070B50D4D04464FF47A712878B1FBF0F065
:100870000A490968B1FBF0F000F0ECFA48B9102C15
:1008800007D200222146501E00F036F800206C608E
:1008900070BD012070BD00003C0000204800002019
:1008A0000C4808B5816941F001018161816901F05D
:1008B00001010091C16941F08051C161C06900F03E
:1008C000805000900448416821F0E06141F080616F
:1008D000416008BD0010024000000140002809DB13
:1008E00000F01F02012191404009800000F1E0204A
:1008F000C0F8001170470000F0B40E4B1B680C46A6
:10090000C3F30223C3F10705042D00D90425191DE3
:10091000072901D2002300E0DB1E012606FA05F1BB
:10092000491E214099409E40761E16403143F0BC3E
:1009300001F0F9B90CED00E0064900F00702086883
:100940004FF6FF03184040EA0220034A10430860B4
:10095000704700000CED00E00000FA052DE9F047BB
:100960000F46050061D0434E306800F00700B842E2
:1009700009D2306820F0070038433060306800F05A
:100980000700B84251D128683B4C810712D5400777
:1009900003D5606840F4E06060602878000703D504
:1009A000606840F4605060606068A96820F0F00002
:1009B000084360602878C00728D06868012810D0F4
:1009C0002168022810D0890700292EDA616821F0F9
:1009D000030101436160FFF723FF804641F288393C
:1009E0000DE021688903EFE78901EDE7FFF718FFC4
:1009F000A0EB0801494502D90320BDE8F0876068F3
:100A0000696800F00C00B0EB810FEFD1306800F0A6
:100A10000700B8420BD9306820F007003843306037
:100A2000306800F00700B84201D00120E5E72878DF
:100A3000400705D56068E96820F4E060084360601D
:100A40002878000706D56068296920F4605040EADC
:100A5000C100606000F038F86168084AC1F3031112
:100A6000515CC8400649086006480068FFF7F8FE78
:100A70000020C2E70020024000100240081F0008CA
:100A800048000020400000200448054900684968EB
:100A9000044AC1F30221515CC8407047480000205D
:100AA00000100240181F0008044805490068496802
:100AB000044AC1F3C221515CC8407047480000207D
:100AC00000100240181F000812A185B00FC98DE860
:100AD0000F0014A0144A006804905168134801F0F4
:100AE0000C03042B10D0082B0ED1C1F38343C90390
:100AF0001DF803000AD5516804AAC1F34041515CB6
:100B00000A4A5043B0FBF1F005B07047084948432A
:100B1000FAE7000002030405060708090A0B0C0D9A
:100B20000E0F1010010200000010024000127A00A7
:100B300000093D002DE9F84F040070D02078C04D29
:100B4000C00749D06868C0F38100012807D06868F1
:100B5000C0F38100022809D16868C00306D528685F
:100B6000800339D560680028E7D035E06068B0F5CB
:100B7000803F0BD010B1B0F5A02F11D0286820F421
:100B800080302860286820F4802002E0286840F443
:100B900080302860606890B1FFF742FE06460AE0A8
:100BA000286840F480202860F0E700BFFFF738FE97
:100BB000801B642873D828688003F7D50CE0FFF702
:100BC0002FFE064605E000BFFFF72AFE801B6428C3
:100BD000F0D828688003F7D420789A4E80074FF029
:100BE00001094FF0000839D5686810F00C0F07D0E4
:100BF0006868C0F38100022809D16868C00306D480
:100C00002868800714D52069012808D110E02069E0
:100C1000B0B1C6F80090FFF703FE074605E00AE111
:100C2000FFF7FEFDC01B0228C4D828688007F7D54F
:100C30002868616920F0F80040EAC10028600DE0F2
:100C4000C6F80080FFF7ECFD074604E0FFF7E8FD7B
:100C5000C01B022823D828688007F7D42078000713
:100C60002CD57948A169D9B1C0F80090FFF7D8FD1B
:100C7000074604E0FFF7D4FDC01B02280FD8686ABE
:100C80008007F7D571484FF4FA510068B0FBF1F0D6
:100C9000009000BF0098411E0091FAD20EE080E063
:100CA000C0F80080FFF7BCFD074604E0FFF7B8FD81
:100CB000C01B022875D8686A8007F7D420784007DF
:100CC00060D5E8690027C00008D4E86940F080508A
:100CD000E861E869012700F0805000905C480168F5
:100CE000C90513D40168834641F480710160FFF7A0
:100CF00097FD824606E000BFFFF792FDA0EB0A00D9
:100D000064284ED8DBF80000C005F5D5E06801285E
:100D10000AD008B1052813D0286A20F00100286203
:100D2000286A20F0040002E0286A40F001002862EE
:100D3000E06841F2883B98B1FFF772FD82460BE014
:100D4000286A40F004002862EEE700BFFFF768FD64
:100D5000A0EB0A0159455AD8286A8007F6D50CE05D
:100D6000FFF75EFD824605E0FFF75AFDA0EB0A01A2
:100D700059454CD8286A8007F6D41FB1E86920F09D
:100D80008050E861E06988B36968C1F38101022994
:100D900044D00228C6F8608004D0FFF741FD044625
:100DA00038E034E0FFF73CFD074604E0FFF738FD8C
:100DB000C01B02282BD828688001F7D4206AB0F520
:100DC000803F05D16868A16820F40030084368605E
:100DD000D4E908010843696821F474110843686084
:100DE000C6F86090FFF71CFD044606E025E000BF52
:100DF000FFF716FD001B022809D828688001F7D5E7
:100E00001BE000BFFFF70CFD001B022802D90320E6
:100E1000BDE8F88F28688001F4D40EE00128F7D0EF
:100E20006868226A00F48031914204D1616A00F45A
:100E30007010884201D00120EAE70020E8E70000B6
:100E4000001002400000424280044242480000205C
:100E50000070004010B5401EB0F1807F01D301202A
:100E600010BD4FF0E02460610F21601700F05BFFC0
:100E70000020A06107202061002010BD704770474E
:100E800070B590F83C20012A19D0012400F83C4F9D
:100E90000222427050F83C3C5A689D6822F070066D
:100EA0000A684968324325F0800529435A6050F8A2
:100EB0003C2C9160447000210170084670BD0220F6
:100EC00070BD10B5040003D094F83D0010B107E0E8
:100ED000012010BD002084F83C00204600F00CF8F2
:100EE000022084F83D00211D206800F0D9FB01207C
:100EF00084F83D00002010BD08B5154A016815486A
:100F000091420ED1816941F40061816180690022C2
:100F100000F40060009011461920FFF7EDFC192045
:100F200010E0B1F1804F11D1C16941F00101C161FF
:100F3000C069002200F00100009011461C20FFF75C
:100F4000DBFC1C20BDE80840FFF7C8BC08BD000062
:100F5000002C014000100240022180F83D10016881
:100F60008A6802F00702062A03D00A6842F00102EA
:100F70000A60012180F83D10002070470168CA68AE
:100F800042F00102CA600068816801F00701062989
:100F900003D0016841F00101016000207047022187
:100FA00080F83D1001680A6A41F211131A4207D114
:100FB0000A6A9B101A4203D10A6822F001020A60F1
:100FC000012180F83D100020704770B5044690F86C
:100FD0003C00012817D0012584F83C50022084F8F9
:100FE0003D002068826822F0770222F47F4282600E
:100FF0000868502830D00DDC20284DD005DC98B38F
:1010000010283BD148E0022070BD302844D0402851
:1010100034D139E0602828D0702806D0B0F5805F40
:101020002CD0B0F5005F29D10AE0CB68D1E90121CD
:10103000206800F063FB2068816841F0770109E0D7
:10104000CB68D1E90121206800F058FB2068816855
:1010500041F48041816011E0CA684968206800F06D
:101060005FFB5021206807E016E0CA6849682068E5
:1010700000F067FB6021206800F04AFB84F83D50D7
:10108000002084F83C0070BDCA684968206800F000
:1010900047FB40212068EFE7226801461046EBE756
:1010A000704770B50446006801694FF00005C943F8
:1010B000890715D4C168C943890711D4E91E0161A4
:1010C00001202077206880698007204602D0FFF742
:1010D000E7FF04E000F098F8204600F096F8257746
:1010E00020680169C943490717D4C168C943490742
:1010F00013D46FF004010161022020772068806919
:1011000010F4407F204602D0FFF7CAFF04E000F051
:101110007BF8204600F079F8257720680169C943FB
:10112000090716D4C168C943090712D46FF0080132
:101130000161042020772068C0698007204602D022
:10114000FFF7AEFF04E000F05FF8204600F05DF826
:10115000257720680169C943C90617D4C168C94306
:10116000C90613D46FF010010161082020772068B0
:10117000C06910F4407F204602D0FFF791FF04E0E1
:1011800000F042F8204600F040F825772068016919
:10119000C943C90708D1C168C943C90704D1891E19
:1011A0000161204600F032F820680169C943090650
:1011B00009D4C168C943090605D46FF080010161F3
:1011C0002046FFF75BFE20680169C943490609D440
:1011D000C168C943490605D46FF04001016120464A
:1011E00000F038F820680169C94389060BD4C1684A
:1011F000C943890607D46FF0200101612046BDE88C
:101200007040FFF73CBE70BD7047704730B40D4A68
:10121000016891420CD10D4A0B4B0D4C116853F8EB
:1012200021302360491C1160022901DD0021116079
:101230000068B0F1804F02D130BCFFF743B830BC3A
:1012400070470000002C0140FC1E00080000002038
:101250000C0C0140704770B5040004D094F83900BC
:10126000002510B106E0012070BD84F838502046FA
:1012700000F022F8242084F839002068C16821F4A5
:101280000051C160204600F06FFA2068016921F426
:10129000904101612068416921F02A014161206883
:1012A000C16841F40051C160E563202084F8390031
:1012B00084F83A00002070BD30B585B00024009459
:1012C0000194029403940068184988422BD118486D
:1012D000C16941F40031C161C16901F40031049177
:1012E000816941F0040181618069124D00F00400C0
:1012F000049004200090022001900320039069468E
:101300002846FFF7A3F90820CDE9000469462846DE
:101310000294FFF79BF9002211462620FFF7ECFA12
:101320002620FFF7DBFA05B030BD00000044004086
:1013300000100240000801402DE9F843044690F8EF
:1013400039001F4616460D46202850D1A5B19EB142
:1013500094F8380001284AD0012084F838004FF072
:101360000008C4F83C80212084F83900FFF758FABF
:10137000A6848146E68426E00120BDE8F883E08C5F
:10138000401EE084A0684B46B0F5805F4FF000023D
:101390004FF080012046009703D000F041FAE8B9F1
:1013A0000DE000F03DFAC8B928882168C0F30800B4
:1013B0004860206908B16D1C05E0AD1C03E02168A0
:1013C00015F8010B4860E08C0028D8D14B4600226C
:1013D00040212046009700F023FA08B10320CCE713
:1013E000202084F8390084F838800020C5E70220E6
:1013F000C3E7FEE72DE9F04186B0002420480094C1
:10140000019402940394816941F00401816181692E
:1014100001F004010491816941F008018161806952
:10142000184F00F008004FF6F3750490002229468B
:101430003846FFF7F0F9DFF850800022E0214046FF
:10144000FFF7E9F90095022601250396CDE901543D
:1014500069463846FFF7FAF80F208DE831006946F3
:101460004046FFF7F3F8E020CDE90005CDE902465C
:1014700069464046FFF7EAF806B0BDE8F081000093
:101480000010024000080140000C014010B586B079
:1014900000241248009401940294039404940E4989
:1014A0000594016041F63F71C0E901140A21C0E9C9
:1014B000031444618461FFF704FD4FF480500090F1
:1014C00069460648FFF781FD049404A90348059482
:1014D000FFF7D6FC06B010BD002C014050000020E4
:1014E00010B586B00024114800940194029403942E
:1014F00004944FF080410594016041F63F71C0E9CA
:1015000001140221C0E903148461FFF7DAFC4FF4EF
:101510008050009069460548FFF757FD049404A9E0
:1015200002480594FFF7ACFC06B010BD9000002007
:10153000FEE770477047000010B5074C0020606060
:10154000FEF7B4FE00F022F8A068002803D1BDE841
:10155000104000F003B810BD0000002010B50A4C88
:1015600000224FF400512046FFF755F900224FF4B6
:1015700080412046FFF74FF92046BDE81040002289
:101580004FF40041FFF747B90008014010B50C4C7B
:1015900000224FF480712046FFF73DF900226115CB
:1015A0002046FFF738F9002221152046FFF733F9CE
:1015B0000022E1142046BDE81040FFF72CB90000DE
:1015C000000801407047000010B5094C012251038A
:1015D0002046FFF720F9012291032046FFF71BF96F
:1015E00020460122BDE81040D103FFF714B90000E6
:1015F00000080140FFF71AB930B58FB028216846BE
:10160000FEF797FD14210AA8FEF793FD012002259D
:1016100004900095102005900024CDE907546846F9
:101620000994FFF787FA0F200A90CDE90B540D9427
:1016300000210AA80E94FFF791F90FB030BD000009
:101640000D48016841F00101016041680B4A1140F9
:10165000416001680A4A11400160016821F480215B
:101660000160416821F4FE0141604FF41F01816077
:101670000449C00308607047001002400000FFF8F2
:10168000FFFFF6FE08ED00E00148FFF70ABD00008D
:10169000500000200148FFF704BD0000900000202A
:1016A00070B50268134B144C4FF08046984203D03B
:1016B000B04201D0A04203D122F070054A682A430B
:1016C000984203D0B04201D0A04203D122F440742A
:1016D000CA6822434C6922F08002224302608A6871
:1016E000C2620A688262984201D1096901630121DC
:1016F000416170BD002C01400004004010B58468B9
:1017000042EA032224F47F440A432243826010BD4C
:10171000826822F070020A4342F00701816070473C
:1017200010B5036A046A24F001040462846924F099
:10173000F00444EA021423F00A020A4384610262BC
:1017400010BD10B5036A23F0100303628369046AB5
:1017500023F4704343EA023224F0A00343EA011168
:101760008261016210BD00002DE9F041044600686D
:101770000169E26821F44051114301612169A068C7
:101780000843616908432168CA6841F20C639A43BF
:101790000243CA6020684169A26921F44071114383
:1017A00041611E49206864253226884202D1FFF734
:1017B0007BF901E0FFF768F900EBC00101EB0011D4
:1017C00060686FF018078000B1FBF0F2B2FBF5F231
:1017D000B1FBF0F37A4303EB8202B1FBF0F306EBCB
:1017E0000212B2FBF5F2B3FBF5F302F0F00202EBEA
:1017F0000312B1FBF0F3B1FBF0F0B0FBF5F078436E
:1018000003EB800006EB0010B0FBF5F0216800F060
:101810000F0010448860BDE8F081000000380140EE
:101820002DE9F041984617460E460446069D1DE0F8
:10183000681C1BD02DB1FEF7F3FFA0EB0800A842F7
:1018400014D92068C16821F4D071C1602068416951
:1018500021F001014161202084F8390084F83A0028
:10186000002084F838000320BDE8F081206800687B
:1018700036EA000004D00020B842D9D00020F3E7B7
:101880000120F9E770B52148006880063CD51F4863
:10189000001D03681F4C00251D4A6068233B01465C
:1018A000401C172B29D2DFE803F0232828282828FA
:1018B00028232828282828210C0E131517191B1D4A
:1018C0001F00012300E0022342F82130606014E091
:1018D0000323F9E70423F7E70523F5E70623F3E7F6
:1018E0000723F1E70823EFE70923EDE70A23EBE7F6
:1018F000FFF722FEFFF732FEA5606068042803D1DF
:10190000BDE87040FEF734BC70BD000000440040EC
:101910001001002000000020FEE7000070B5164D09
:101920000446002201212846FEF775FF002202210D
:101930002846FEF770FF002280212846FEF76BFF45
:101940000022A9142846FEF766FF0022102128462F
:10195000FEF761FF002220212846FEF75CFF0022EF
:1019600040212846FEF757FFA1B22846BDE8704047
:101970000122FEF750BF00000008014070B5164D6F
:101980000446002201212846FEF745FF00220221DD
:101990002846FEF740FF012280212846FEF73BFF44
:1019A0000022A9142846FEF736FF002210212846FF
:1019B000FEF731FF012220212846FEF72CFF0022EE
:1019C00040212846FEF727FFA1B22846BDE8704017
:1019D0000122FEF720BF00000008014070B5164D3F
:1019E0000446002201212846FEF715FF00220221AD
:1019F0002846FEF710FF012280212846FEF70BFF44
:101A0000012211032846FEF706FF00221021284676
:101A1000FEF701FF002220212846FEF7FCFE0122EE
:101A200040212846FEF7F7FEA1B22846BDE87040E7
:101A30000122FEF7F0BE00000008014070B5164D0F
:101A40000446002201212846FEF7E5FE002202217D
:101A50002846FEF7E0FE012280212846FEF7DBFE45
:101A60000022A9142846FEF7D6FE0022102128469F
:101A7000FEF7D1FE002220212846FEF7CCFE0022F0
:101A800040212846FEF7C7FEA1B22846BDE87040B7
:101A90000122FEF7C0BE00000008014070B5164DDF
:101AA0000446012211462846FEF7B5FE0122022116
:101AB0002846FEF7B0FE012280212846FEF7ABFE45
:101AC000012211032846FEF7A6FE00221021284617
:101AD000FEF7A1FE002220212846FEF79CFE0122EF
:101AE00040212846FEF797FEA1B22846BDE8704087
:101AF0000122FEF790BE00000008014070B5164DAF
:101B00000446012211462846FEF785FE01220221E5
:101B10002846FEF780FE012280212846FEF77BFE44
:101B2000012211032846FEF776FE002210212846E6
:101B3000FEF771FE002220212846FEF76CFE0022EF
:101B400040212846FEF767FEA1B22846BDE8704056
:101B50000122FEF760BE00000008014070B5164D7E
:101B60000446002201212846FEF755FE00220221EC
:101B70002846FEF750FE002280212846FEF74BFE45
:101B80000022A9142846FEF746FE0022102128460E
:101B9000FEF741FE012220212846FEF73CFE0022EE
:101BA00040212846FEF737FEA1B22846BDE8704026
:101BB0000122FEF730BE00000008014070B5164D4E
:101BC0000446002201212846FEF725FE01220221BB
:101BD0002846FEF720FE012280212846FEF71BFE44
:101BE0000022A9142846FEF716FE002210212846DE
:101BF000FEF711FE002220212846FEF70CFE0022EF
:101C000040212846FEF707FEA1B22846BDE87040F5
:101C10000122FEF700BE00000008014070B5164D1D
:101C20000446002201212846FEF7F5FD012202218B
:101C30002846FEF7F0FD002280212846FEF7EBFD46
:101C40000022A9142846FEF7E6FD012210212846AD
:101C5000FEF7E1FD002220212846FEF7DCFD0022F0
:101C600040212846FEF7D7FDA1B22846BDE87040C6
:101C70000122FEF7D0BD00000008014070B5164DEE
:101C80000446012211462846FEF7C5FD0022022126
:101C90002846FEF7C0FD002280212846FEF7BBFD46
:101CA0000022A9142846FEF7B6FD0022102128467E
:101CB000FEF7B1FD002220212846FEF7ACFD0022F0
:101CC00040212846FEF7A7FDA1B22846BDE8704096
:101CD0000122FEF7A0BD000000080140014A0249B0
:101CE00000F040B8C11D00084C000020002809DBAE
:101CF00000F01F02012191404009800000F1E02026
:101D0000C0F8001170470907090E002804DB00F134
:101D1000E02080F80014704700F00F0000F1E02090
:101D200080F8141D70470907090E002804DB00F134
:101D3000E02080F80014704700F00F0000F1E02070
:101D400080F8141D704702E008C8121F08C1002A5D
:101D5000FAD170477047002001E001C1121F002A2C
:101D6000FBD170472DE9F04116460F460446002589
:101D700003E03946B047641C6D1C20780028F8D178
:101D80002846BDE8F081000003480249416003494C
:101D9000416070472301674500200240AB89EFCDC9
:101DA000064A136943F0010313610180090C418065
:101DB000106920F00100106170470000002002400F
:101DC00013B54FF6FF73012269460248FFF7B4FAD4
:101DD00000981CBDD000002010B5FEF72FFDFFF7C6
:101DE0000BFCFFF707FBFFF751FBFFF779FB3F48C1
:101DF0003D490C2201604FF4165141600021816081
:101E0000C160C0E904128161C161FFF724FA37485B
:101E10008038FFF7B3F835484038FFF7AFF834485B
:101E2000816841F21112114381603248016841F02A
:101E30000F010160001D016841F00F0101602D4894
:101E40000C30016841F00F0101602A480838016830
:101E500041F00F0101600620FFF748FF0720FFF760
:101E600045FF0820FFF742FF0920FFF73FFF26202C
:101E7000FFF73CFF1C480C30016841F04001016055
:101E8000016841F02001016001210620FFF73BFFBE
:101E900001210720FFF737FF01210820FFF733FF5B
:101EA00001210920FFF72FFF02211C20FFF72BFF44
:101EB0000021481EFFF727FFFFF766FF01210E48AC
:101EC000FFF76EFF0C480221401CFFF769FF0A482C
:101ED0000321801CFFF764FF07480421C01CFFF7A3
:101EE0005FFF002010BD000000440040D000002033
:101EF0000000014008040140F07F000820000000BD
:101F00004000000080000000000000000000000011
:101F1000010203040607080900000000010203048F
:101F2000401F00080000002050000000461D00086F
:101F3000901F000850000020D0040000561D00082B
:101F40000000000000000000000000000001000090
:101F50000002000000040000000800000100000072
:101F6000010000000100000001000000020000006C
:101F7000020000000200000002000000010000005A
:101F800010000000000000000024F4000000000029
:04000005080000ED02
:00000001FF
